MV685    080USIME       PNA     N1000R$  000000000000800000000000080000000000008000000000000800000000000080000000000001000000000001300002000000000000001900000000000000015200000000000068502019102100000010000000000000BRUSIMACNPA6161
012019090978VALEL130    070VALE        ON      NM000R$  000000000360000000000036000000000003600000000000360000000000036000000000000000000000000000000001000000000000000100000000000000360000000000000113002019121600000010000000000000BRVALEACNOR0195
012019090978VALEI45     070VALE        ON      NM000R$  000000000030000000000004000000000000300000000000031300000000004000000000000325000000000000000018000000000000034600000000000010841800000000000437202019091600000010000000000000BRVALEACNOR0196
012019090978VALEL568    070VALE        ON      NM000R$  000000000008200000000000820000000000082000000000008200000000000820000000000033000000000000000009000000000000000900000000000000073800000000000555502019121600000010000000000000BRVALEACNOR0196
012019090982VALEU437    080VALEE       ON      NM000R$  000000000000500000000000050000000000001000000000000200000000000010000000000001000000000000200054000000000000078100000000000000199700000000000424702019091600000010000000000000BRVALEACNOR0196
012019090982VALEU45     080VALEE       ON      NM000R$  000000000000900000000000100000000000004000000000000700000000000040000000000001000000000000400032000000000000107400000000000000801600000000000437202019091600000010000000000000BRVALEACNOR0196
012019090982VALEM400    080VALEE       ON      NM000R$  000000000006700000000000670000000000067000000000006700000000000670000000000002000000000000000001000000000000000100000000000000006700000000000388002020012000000010000000000000BRVALEACNOR0196
012019090978VALEI49     070VALE        ON      NM000R$  000000000000900000000000160000000000006000000000001000000000000160000000000015000000000001600336000000000002292900000000000025058400000000000497202019091600000010000000000000BRVALEACNOR0197
012019090978VALEI552    070VALE        ON      NM000R$  000000000000100000000000010000000000001000000000000100000000000010000000000000000000000000100002000000000000010000000000000000010000000000000552202019091600000010000000000000BRVALEACNOR0197
012019090978VALEL605    070VALE        ON      NM000R$ 